{
  "address": "0xA7Aba65B03C93C197D6EC59B3362248078Fd45fa",
  "abi": [
    {
      "inputs": [],
      "stateMutability": "nonpayable",
      "type": "constructor"
    },
    {
      "anonymous": false,
      "inputs": [
        {
          "indexed": true,
          "internalType": "address",
          "name": "depositor",
          "type": "address"
        },
        {
          "indexed": false,
          "internalType": "uint256",
          "name": "amount",
          "type": "uint256"
        }
      ],
      "name": "Deposited",
      "type": "event"
    },
    {
      "anonymous": false,
      "inputs": [
        {
          "indexed": true,
          "internalType": "address",
          "name": "depositor",
          "type": "address"
        },
        {
          "indexed": false,
          "internalType": "uint256",
          "name": "amount",
          "type": "uint256"
        }
      ],
      "name": "RewardDeposited",
      "type": "event"
    },
    {
      "anonymous": false,
      "inputs": [
        {
          "indexed": true,
          "internalType": "bytes32",
          "name": "role",
          "type": "bytes32"
        },
        {
          "indexed": true,
          "internalType": "bytes32",
          "name": "previousAdminRole",
          "type": "bytes32"
        },
        {
          "indexed": true,
          "internalType": "bytes32",
          "name": "newAdminRole",
          "type": "bytes32"
        }
      ],
      "name": "RoleAdminChanged",
      "type": "event"
    },
    {
      "anonymous": false,
      "inputs": [
        {
          "indexed": true,
          "internalType": "bytes32",
          "name": "role",
          "type": "bytes32"
        },
        {
          "indexed": true,
          "internalType": "address",
          "name": "account",
          "type": "address"
        },
        {
          "indexed": true,
          "internalType": "address",
          "name": "sender",
          "type": "address"
        }
      ],
      "name": "RoleGranted",
      "type": "event"
    },
    {
      "anonymous": false,
      "inputs": [
        {
          "indexed": true,
          "internalType": "bytes32",
          "name": "role",
          "type": "bytes32"
        },
        {
          "indexed": true,
          "internalType": "address",
          "name": "account",
          "type": "address"
        },
        {
          "indexed": true,
          "internalType": "address",
          "name": "sender",
          "type": "address"
        }
      ],
      "name": "RoleRevoked",
      "type": "event"
    },
    {
      "anonymous": false,
      "inputs": [
        {
          "indexed": true,
          "internalType": "address",
          "name": "withdrawer",
          "type": "address"
        },
        {
          "indexed": false,
          "internalType": "uint256",
          "name": "amount",
          "type": "uint256"
        }
      ],
      "name": "Withdrawn",
      "type": "event"
    },
    {
      "inputs": [],
      "name": "DEFAULT_ADMIN_ROLE",
      "outputs": [
        {
          "internalType": "bytes32",
          "name": "",
          "type": "bytes32"
        }
      ],
      "stateMutability": "view",
      "type": "function"
    },
    {
      "inputs": [],
      "name": "deposit",
      "outputs": [],
      "stateMutability": "payable",
      "type": "function"
    },
    {
      "inputs": [],
      "name": "depositRewards",
      "outputs": [],
      "stateMutability": "payable",
      "type": "function"
    },
    {
      "inputs": [
        {
          "internalType": "bytes32",
          "name": "role",
          "type": "bytes32"
        }
      ],
      "name": "getRoleAdmin",
      "outputs": [
        {
          "internalType": "bytes32",
          "name": "",
          "type": "bytes32"
        }
      ],
      "stateMutability": "view",
      "type": "function"
    },
    {
      "inputs": [
        {
          "internalType": "bytes32",
          "name": "role",
          "type": "bytes32"
        },
        {
          "internalType": "address",
          "name": "account",
          "type": "address"
        }
      ],
      "name": "grantRole",
      "outputs": [],
      "stateMutability": "nonpayable",
      "type": "function"
    },
    {
      "inputs": [
        {
          "internalType": "bytes32",
          "name": "role",
          "type": "bytes32"
        },
        {
          "internalType": "address",
          "name": "account",
          "type": "address"
        }
      ],
      "name": "hasRole",
      "outputs": [
        {
          "internalType": "bool",
          "name": "",
          "type": "bool"
        }
      ],
      "stateMutability": "view",
      "type": "function"
    },
    {
      "inputs": [],
      "name": "lastRewardBlock",
      "outputs": [
        {
          "internalType": "uint256",
          "name": "",
          "type": "uint256"
        }
      ],
      "stateMutability": "view",
      "type": "function"
    },
    {
      "inputs": [
        {
          "internalType": "bytes32",
          "name": "role",
          "type": "bytes32"
        },
        {
          "internalType": "address",
          "name": "account",
          "type": "address"
        }
      ],
      "name": "renounceRole",
      "outputs": [],
      "stateMutability": "nonpayable",
      "type": "function"
    },
    {
      "inputs": [
        {
          "internalType": "bytes32",
          "name": "role",
          "type": "bytes32"
        },
        {
          "internalType": "address",
          "name": "account",
          "type": "address"
        }
      ],
      "name": "revokeRole",
      "outputs": [],
      "stateMutability": "nonpayable",
      "type": "function"
    },
    {
      "inputs": [
        {
          "internalType": "address",
          "name": "user",
          "type": "address"
        }
      ],
      "name": "rewardBalanceOf",
      "outputs": [
        {
          "internalType": "uint256",
          "name": "",
          "type": "uint256"
        }
      ],
      "stateMutability": "view",
      "type": "function"
    },
    {
      "inputs": [],
      "name": "rewards",
      "outputs": [
        {
          "internalType": "uint256",
          "name": "",
          "type": "uint256"
        }
      ],
      "stateMutability": "view",
      "type": "function"
    },
    {
      "inputs": [
        {
          "internalType": "bytes4",
          "name": "interfaceId",
          "type": "bytes4"
        }
      ],
      "name": "supportsInterface",
      "outputs": [
        {
          "internalType": "bool",
          "name": "",
          "type": "bool"
        }
      ],
      "stateMutability": "view",
      "type": "function"
    },
    {
      "inputs": [],
      "name": "totalDeposit",
      "outputs": [
        {
          "internalType": "uint256",
          "name": "",
          "type": "uint256"
        }
      ],
      "stateMutability": "view",
      "type": "function"
    },
    {
      "inputs": [],
      "name": "totalDepositBeforeLastReward",
      "outputs": [
        {
          "internalType": "uint256",
          "name": "",
          "type": "uint256"
        }
      ],
      "stateMutability": "view",
      "type": "function"
    },
    {
      "inputs": [
        {
          "internalType": "address",
          "name": "",
          "type": "address"
        }
      ],
      "name": "userInfos",
      "outputs": [
        {
          "internalType": "uint256",
          "name": "totalDeposit",
          "type": "uint256"
        },
        {
          "internalType": "uint256",
          "name": "depositAfterLastReward",
          "type": "uint256"
        },
        {
          "internalType": "uint256",
          "name": "depositBeforeLastWithdraw",
          "type": "uint256"
        },
        {
          "internalType": "uint256",
          "name": "lastDepositBlock",
          "type": "uint256"
        },
        {
          "internalType": "uint256",
          "name": "lastWithdrawBlock",
          "type": "uint256"
        },
        {
          "internalType": "uint256",
          "name": "rewardOnLastWithdraw",
          "type": "uint256"
        },
        {
          "internalType": "uint256",
          "name": "totalDepositBeforeLastWithdraw",
          "type": "uint256"
        }
      ],
      "stateMutability": "view",
      "type": "function"
    },
    {
      "inputs": [
        {
          "internalType": "address payable",
          "name": "recipient",
          "type": "address"
        }
      ],
      "name": "withdraw",
      "outputs": [],
      "stateMutability": "nonpayable",
      "type": "function"
    },
    {
      "inputs": [
        {
          "internalType": "address",
          "name": "user",
          "type": "address"
        }
      ],
      "name": "withdrawBalanceOf",
      "outputs": [
        {
          "internalType": "uint256",
          "name": "",
          "type": "uint256"
        }
      ],
      "stateMutability": "view",
      "type": "function"
    },
    {
      "stateMutability": "payable",
      "type": "receive"
    }
  ],
  "transactionHash": "0x29d79272c695799e50b725ad713b950cd3dc31eaddd10782fce5ce569cfc4ba2",
  "args": [],
  "solcInputHash": "e3092812957cdfcbc326198a6ea27a7c",
  "bytecode": "0x60806040523480156200001157600080fd5b50600180819055506200002e6000801b336200003460201b60201c565b620001ad565b6200004682826200004a60201b60201c565b5050565b6200005c82826200013b60201b60201c565b6200013757600160008084815260200190815260200160002060000160008373ffffffffffffffffffffffffffffffffffffffff1673ffffffffffffffffffffffffffffffffffffffff16815260200190815260200160002060006101000a81548160ff021916908315150217905550620000dc620001a560201b60201c565b73ffffffffffffffffffffffffffffffffffffffff168173ffffffffffffffffffffffffffffffffffffffff16837f2f8788117e7eff1d82e926ec794901d17c78024a50270940304540a733656f0d60405160405180910390a45b5050565b600080600084815260200190815260200160002060000160008373ffffffffffffffffffffffffffffffffffffffff1673ffffffffffffffffffffffffffffffffffffffff16815260200190815260200160002060009054906101000a900460ff16905092915050565b600033905090565b611a5c80620001bd6000396000f3fe6080604052600436106101015760003560e01c806391d1485411610095578063b37eabd911610064578063b37eabd91461034a578063d0e30db014610375578063d547741f1461037f578063e964b644146103a8578063f6153ccd146103e557610108565b806391d148541461028c5780639ec5a894146102c9578063a217fddf146102f4578063a9f8d1811461031f57610108565b80632f2ff15d116100d15780632f2ff15d146101ce57806336568abe146101f757806343b0215f1461022057806351cff8d91461026357610108565b806265453c1461010d57806301ffc9a71461014a578063152111f714610187578063248a9ca31461019157610108565b3661010857005b600080fd5b34801561011957600080fd5b50610134600480360381019061012f919061117f565b610410565b6040516101419190611555565b60405180910390f35b34801561015657600080fd5b50610171600480360381019061016c9190611236565b610483565b60405161017e919061145d565b60405180910390f35b61018f6104fd565b005b34801561019d57600080fd5b506101b860048036038101906101b391906111d1565b6105c2565b6040516101c59190611478565b60405180910390f35b3480156101da57600080fd5b506101f560048036038101906101f091906111fa565b6105e1565b005b34801561020357600080fd5b5061021e600480360381019061021991906111fa565b61060a565b005b34801561022c57600080fd5b506102476004803603810190610242919061117f565b61068d565b60405161025a9796959493929190611570565b60405180910390f35b34801561026f57600080fd5b5061028a600480360381019061028591906111a8565b6106cf565b005b34801561029857600080fd5b506102b360048036038101906102ae91906111fa565b6108aa565b6040516102c0919061145d565b60405180910390f35b3480156102d557600080fd5b506102de610914565b6040516102eb9190611555565b60405180910390f35b34801561030057600080fd5b5061030961091a565b6040516103169190611478565b60405180910390f35b34801561032b57600080fd5b50610334610921565b6040516103419190611555565b60405180910390f35b34801561035657600080fd5b5061035f610927565b60405161036c9190611555565b60405180910390f35b61037d61092d565b005b34801561038b57600080fd5b506103a660048036038101906103a191906111fa565b610a40565b005b3480156103b457600080fd5b506103cf60048036038101906103ca919061117f565b610a69565b6040516103dc9190611555565b60405180910390f35b3480156103f157600080fd5b506103fa610b5b565b6040516104079190611555565b60405180910390f35b600080600660008473ffffffffffffffffffffffffffffffffffffffff1673ffffffffffffffffffffffffffffffffffffffff168152602001908152602001600020905061045d83610a69565b8160020154826000015461047191906116f2565b61047b9190611611565b915050919050565b60007f7965db0b000000000000000000000000000000000000000000000000000000007bffffffffffffffffffffffffffffffffffffffffffffffffffffffff1916827bffffffffffffffffffffffffffffffffffffffffffffffffffffffff191614806104f657506104f582610b61565b5b9050919050565b61050a6000801b336108aa565b610549576040517f08c379a0000000000000000000000000000000000000000000000000000000008152600401610540906114f5565b60405180910390fd5b346002600082825461055b9190611611565b92505081905550600354600581905550436004819055503373ffffffffffffffffffffffffffffffffffffffff167f7dbc080e4530c8bcf265eb5c9a35ae096ca1eb607b7e802b96581ef4c5e1a703346040516105b89190611555565b60405180910390a2565b6000806000838152602001908152602001600020600101549050919050565b6105ea826105c2565b6105fb816105f6610bcb565b610bd3565b6106058383610c70565b505050565b610612610bcb565b73ffffffffffffffffffffffffffffffffffffffff168173ffffffffffffffffffffffffffffffffffffffff161461067f576040517f08c379a000000000000000000000000000000000000000000000000000000000815260040161067690611535565b60405180910390fd5b6106898282610d50565b5050565b60066020528060005260406000206000915090508060000154908060010154908060020154908060030154908060040154908060050154908060060154905087565b60026001541415610715576040517f08c379a000000000000000000000000000000000000000000000000000000000815260040161070c90611515565b60405180910390fd5b6002600181905550600061072833610410565b90506000811115610851576000600660003373ffffffffffffffffffffffffffffffffffffffff1673ffffffffffffffffffffffffffffffffffffffff1681526020019081526020016000209050806000015481600201819055504381600401819055506002548160050181905550600554816006018190555060008373ffffffffffffffffffffffffffffffffffffffff16836040516107c89061140e565b60006040518083038185875af1925050503d8060008114610805576040519150601f19603f3d011682016040523d82523d6000602084013e61080a565b606091505b505090508061084e576040517f08c379a0000000000000000000000000000000000000000000000000000000008152600401610845906114d5565b60405180910390fd5b50505b3373ffffffffffffffffffffffffffffffffffffffff167f7084f5476618d8e60b11ef0d7d3f06914655adb8793e28ff7f018d4c76d505d5826040516108979190611555565b60405180910390a2506001808190555050565b600080600084815260200190815260200160002060000160008373ffffffffffffffffffffffffffffffffffffffff1673ffffffffffffffffffffffffffffffffffffffff16815260200190815260200160002060009054906101000a900460ff16905092915050565b60025481565b6000801b81565b60045481565b60055481565b6000600660003373ffffffffffffffffffffffffffffffffffffffff1673ffffffffffffffffffffffffffffffffffffffff168152602001908152602001600020905034600360008282546109829190611611565b925050819055503481600001600082825461099d9190611611565b92505081905550600454816004015410156109ef576004548160030154116109ca57600081600101819055505b348160010160008282546109de9190611611565b925050819055504381600301819055505b3373ffffffffffffffffffffffffffffffffffffffff167f2da466a7b24304f47e87fa2e1e5a81b9831ce54fec19055ce277ca2f39ba42c434604051610a359190611555565b60405180910390a250565b610a49826105c2565b610a5a81610a55610bcb565b610bd3565b610a648383610d50565b505050565b600080600660008473ffffffffffffffffffffffffffffffffffffffff1673ffffffffffffffffffffffffffffffffffffffff168152602001908152602001600020905060008160010154905060008260060154600554610aca91906116f2565b9050600060045484600301541015610ae157600092505b60045484600401541015610b11578284600201548560000154610b0491906116f2565b610b0e91906116f2565b90505b6000821415610b27576000945050505050610b56565b81818560050154600254610b3b91906116f2565b610b459190611698565b610b4f9190611667565b9450505050505b919050565b60035481565b60007f01ffc9a7000000000000000000000000000000000000000000000000000000007bffffffffffffffffffffffffffffffffffffffffffffffffffffffff1916827bffffffffffffffffffffffffffffffffffffffffffffffffffffffff1916149050919050565b600033905090565b610bdd82826108aa565b610c6c57610c028173ffffffffffffffffffffffffffffffffffffffff166014610e31565b610c108360001c6020610e31565b604051602001610c21929190611423565b6040516020818303038152906040526040517f08c379a0000000000000000000000000000000000000000000000000000000008152600401610c639190611493565b60405180910390fd5b5050565b610c7a82826108aa565b610d4c57600160008084815260200190815260200160002060000160008373ffffffffffffffffffffffffffffffffffffffff1673ffffffffffffffffffffffffffffffffffffffff16815260200190815260200160002060006101000a81548160ff021916908315150217905550610cf1610bcb565b73ffffffffffffffffffffffffffffffffffffffff168173ffffffffffffffffffffffffffffffffffffffff16837f2f8788117e7eff1d82e926ec794901d17c78024a50270940304540a733656f0d60405160405180910390a45b5050565b610d5a82826108aa565b15610e2d57600080600084815260200190815260200160002060000160008373ffffffffffffffffffffffffffffffffffffffff1673ffffffffffffffffffffffffffffffffffffffff16815260200190815260200160002060006101000a81548160ff021916908315150217905550610dd2610bcb565b73ffffffffffffffffffffffffffffffffffffffff168173ffffffffffffffffffffffffffffffffffffffff16837ff6391f5c32d9c69d2a47ea670b442974b53935d1edc7fd64eb21e047a839171b60405160405180910390a45b5050565b606060006002836002610e449190611698565b610e4e9190611611565b67ffffffffffffffff811115610e8d577f4e487b7100000000000000000000000000000000000000000000000000000000600052604160045260246000fd5b6040519080825280601f01601f191660200182016040528015610ebf5781602001600182028036833780820191505090505b5090507f300000000000000000000000000000000000000000000000000000000000000081600081518110610f1d577f4e487b7100000000000000000000000000000000000000000000000000000000600052603260045260246000fd5b60200101907effffffffffffffffffffffffffffffffffffffffffffffffffffffffffffff1916908160001a9053507f780000000000000000000000000000000000000000000000000000000000000081600181518110610fa7577f4e487b7100000000000000000000000000000000000000000000000000000000600052603260045260246000fd5b60200101907effffffffffffffffffffffffffffffffffffffffffffffffffffffffffffff1916908160001a90535060006001846002610fe79190611698565b610ff19190611611565b90505b60018111156110dd577f3031323334353637383961626364656600000000000000000000000000000000600f861660108110611059577f4e487b7100000000000000000000000000000000000000000000000000000000600052603260045260246000fd5b1a60f81b828281518110611096577f4e487b7100000000000000000000000000000000000000000000000000000000600052603260045260246000fd5b60200101907effffffffffffffffffffffffffffffffffffffffffffffffffffffffffffff1916908160001a905350600485901c9450806110d6906117e9565b9050610ff4565b5060008414611121576040517f08c379a0000000000000000000000000000000000000000000000000000000008152600401611118906114b5565b60405180910390fd5b8091505092915050565b60008135905061113a816119ca565b92915050565b60008135905061114f816119e1565b92915050565b600081359050611164816119f8565b92915050565b60008135905061117981611a0f565b92915050565b60006020828403121561119157600080fd5b600061119f8482850161112b565b91505092915050565b6000602082840312156111ba57600080fd5b60006111c884828501611140565b91505092915050565b6000602082840312156111e357600080fd5b60006111f184828501611155565b91505092915050565b6000806040838503121561120d57600080fd5b600061121b85828601611155565b925050602061122c8582860161112b565b9150509250929050565b60006020828403121561124857600080fd5b60006112568482850161116a565b91505092915050565b6112688161174a565b82525050565b61127781611756565b82525050565b6000611288826115df565b61129281856115f5565b93506112a28185602086016117b6565b6112ab81611871565b840191505092915050565b60006112c1826115df565b6112cb8185611606565b93506112db8185602086016117b6565b80840191505092915050565b60006112f46020836115f5565b91506112ff82611882565b602082019050919050565b60006113176012836115f5565b9150611322826118ab565b602082019050919050565b600061133a600f836115f5565b9150611345826118d4565b602082019050919050565b600061135d6000836115ea565b9150611368826118fd565b600082019050919050565b6000611380601783611606565b915061138b82611900565b601782019050919050565b60006113a3601f836115f5565b91506113ae82611929565b602082019050919050565b60006113c6601183611606565b91506113d182611952565b601182019050919050565b60006113e9602f836115f5565b91506113f48261197b565b604082019050919050565b611408816117ac565b82525050565b600061141982611350565b9150819050919050565b600061142e82611373565b915061143a82856112b6565b9150611445826113b9565b915061145182846112b6565b91508190509392505050565b6000602082019050611472600083018461125f565b92915050565b600060208201905061148d600083018461126e565b92915050565b600060208201905081810360008301526114ad818461127d565b905092915050565b600060208201905081810360008301526114ce816112e7565b9050919050565b600060208201905081810360008301526114ee8161130a565b9050919050565b6000602082019050818103600083015261150e8161132d565b9050919050565b6000602082019050818103600083015261152e81611396565b9050919050565b6000602082019050818103600083015261154e816113dc565b9050919050565b600060208201905061156a60008301846113ff565b92915050565b600060e082019050611585600083018a6113ff565b61159260208301896113ff565b61159f60408301886113ff565b6115ac60608301876113ff565b6115b960808301866113ff565b6115c660a08301856113ff565b6115d360c08301846113ff565b98975050505050505050565b600081519050919050565b600081905092915050565b600082825260208201905092915050565b600081905092915050565b600061161c826117ac565b9150611627836117ac565b9250827fffffffffffffffffffffffffffffffffffffffffffffffffffffffffffffffff0382111561165c5761165b611813565b5b828201905092915050565b6000611672826117ac565b915061167d836117ac565b92508261168d5761168c611842565b5b828204905092915050565b60006116a3826117ac565b91506116ae836117ac565b9250817fffffffffffffffffffffffffffffffffffffffffffffffffffffffffffffffff04831182151516156116e7576116e6611813565b5b828202905092915050565b60006116fd826117ac565b9150611708836117ac565b92508282101561171b5761171a611813565b5b828203905092915050565b60006117318261178c565b9050919050565b60006117438261178c565b9050919050565b60008115159050919050565b6000819050919050565b60007fffffffff0000000000000000000000000000000000000000000000000000000082169050919050565b600073ffffffffffffffffffffffffffffffffffffffff82169050919050565b6000819050919050565b60005b838110156117d45780820151818401526020810190506117b9565b838111156117e3576000848401525b50505050565b60006117f4826117ac565b9150600082141561180857611807611813565b5b600182039050919050565b7f4e487b7100000000000000000000000000000000000000000000000000000000600052601160045260246000fd5b7f4e487b7100000000000000000000000000000000000000000000000000000000600052601260045260246000fd5b6000601f19601f8301169050919050565b7f537472696e67733a20686578206c656e67746820696e73756666696369656e74600082015250565b7f4661696c656420746f2077697468647261770000000000000000000000000000600082015250565b7f4e6f74207465616d206d656d6265720000000000000000000000000000000000600082015250565b50565b7f416363657373436f6e74726f6c3a206163636f756e7420000000000000000000600082015250565b7f5265656e7472616e637947756172643a207265656e7472616e742063616c6c00600082015250565b7f206973206d697373696e6720726f6c6520000000000000000000000000000000600082015250565b7f416363657373436f6e74726f6c3a2063616e206f6e6c792072656e6f756e636560008201527f20726f6c657320666f722073656c660000000000000000000000000000000000602082015250565b6119d381611726565b81146119de57600080fd5b50565b6119ea81611738565b81146119f557600080fd5b50565b611a0181611756565b8114611a0c57600080fd5b50565b611a1881611760565b8114611a2357600080fd5b5056fea26469706673582212209c8c32143bca89cb35a9b5ddb896ffa2ed93c642bca02cbfc41fdeb9e14a6ca964736f6c63430008040033",
  "devdoc": {
    "kind": "dev",
    "methods": {
      "deposit()": {
        "details": "make user deposit"
      },
      "depositRewards()": {
        "details": "put reward to pool"
      },
      "getRoleAdmin(bytes32)": {
        "details": "Returns the admin role that controls `role`. See {grantRole} and {revokeRole}. To change a role's admin, use {_setRoleAdmin}."
      },
      "grantRole(bytes32,address)": {
        "details": "Grants `role` to `account`. If `account` had not been already granted `role`, emits a {RoleGranted} event. Requirements: - the caller must have ``role``'s admin role."
      },
      "hasRole(bytes32,address)": {
        "details": "Returns `true` if `account` has been granted `role`."
      },
      "renounceRole(bytes32,address)": {
        "details": "Revokes `role` from the calling account. Roles are often managed via {grantRole} and {revokeRole}: this function's purpose is to provide a mechanism for accounts to lose their privileges if they are compromised (such as when a trusted device is misplaced). If the calling account had been granted `role`, emits a {RoleRevoked} event. Requirements: - the caller must be `account`."
      },
      "revokeRole(bytes32,address)": {
        "details": "Revokes `role` from `account`. If `account` had been granted `role`, emits a {RoleRevoked} event. Requirements: - the caller must have ``role``'s admin role."
      },
      "rewardBalanceOf(address)": {
        "details": "get reward amount of user (except deposit)",
        "params": {
          "user": "address of user"
        },
        "returns": {
          "_0": "reward"
        }
      },
      "supportsInterface(bytes4)": {
        "details": "See {IERC165-supportsInterface}."
      },
      "withdraw(address)": {
        "details": "withdraw user deposit and reward to recipient",
        "params": {
          "recipient": "recipient address"
        }
      },
      "withdrawBalanceOf(address)": {
        "details": "get amount available to withdraw",
        "params": {
          "user": "address of user"
        },
        "returns": {
          "_0": "value"
        }
      }
    },
    "stateVariables": {
      "lastRewardBlock": {
        "details": "block where the last reward is deposited"
      },
      "rewards": {
        "details": "total rewards deposited by team members"
      },
      "totalDeposit": {
        "details": "total deposit made by users"
      },
      "totalDepositBeforeLastReward": {
        "details": "total deposit made by all users until the last reward deposit"
      },
      "userInfos": {
        "details": "user address => user info"
      }
    },
    "version": 1
  },
  "userdoc": {
    "kind": "user",
    "methods": {},
    "notice": "d: user deposit  r: reward deposit  w: first user withdrawl  w*: user withdrawl now  timeline:  ---- d ---- r ---- w ---- d ---- r ---- d ---- w* ---->  ---------------------------------------->                total deposit  --------------------------------->                       rewards  ------------------->                                     reward on last withdrawl  ------------------->                                     deposit before last withdrawl                                   +------>                deposit after last reward                     +------------->                       deposits applicable to this part participates in user reward calculation  user reward =     (rewards - reward on last withdrawl) *     (total deposit -  deposit before last withdraw - deposit after last withdrawl) /     total deposit before last rewards",
    "version": 1
  },
  "storageLayout": {
    "storage": [
      {
        "astId": 62,
        "contract": "contracts/EthPool.sol:EthPool",
        "label": "_roles",
        "offset": 0,
        "slot": "0",
        "type": "t_mapping(t_bytes32,t_struct(RoleData)57_storage)"
      },
      {
        "astId": 378,
        "contract": "contracts/EthPool.sol:EthPool",
        "label": "_status",
        "offset": 0,
        "slot": "1",
        "type": "t_uint256"
      },
      {
        "astId": 704,
        "contract": "contracts/EthPool.sol:EthPool",
        "label": "rewards",
        "offset": 0,
        "slot": "2",
        "type": "t_uint256"
      },
      {
        "astId": 707,
        "contract": "contracts/EthPool.sol:EthPool",
        "label": "totalDeposit",
        "offset": 0,
        "slot": "3",
        "type": "t_uint256"
      },
      {
        "astId": 710,
        "contract": "contracts/EthPool.sol:EthPool",
        "label": "lastRewardBlock",
        "offset": 0,
        "slot": "4",
        "type": "t_uint256"
      },
      {
        "astId": 713,
        "contract": "contracts/EthPool.sol:EthPool",
        "label": "totalDepositBeforeLastReward",
        "offset": 0,
        "slot": "5",
        "type": "t_uint256"
      },
      {
        "astId": 719,
        "contract": "contracts/EthPool.sol:EthPool",
        "label": "userInfos",
        "offset": 0,
        "slot": "6",
        "type": "t_mapping(t_address,t_struct(UserInfo)698_storage)"
      }
    ],
    "types": {
      "t_address": {
        "encoding": "inplace",
        "label": "address",
        "numberOfBytes": "20"
      },
      "t_bool": {
        "encoding": "inplace",
        "label": "bool",
        "numberOfBytes": "1"
      },
      "t_bytes32": {
        "encoding": "inplace",
        "label": "bytes32",
        "numberOfBytes": "32"
      },
      "t_mapping(t_address,t_bool)": {
        "encoding": "mapping",
        "key": "t_address",
        "label": "mapping(address => bool)",
        "numberOfBytes": "32",
        "value": "t_bool"
      },
      "t_mapping(t_address,t_struct(UserInfo)698_storage)": {
        "encoding": "mapping",
        "key": "t_address",
        "label": "mapping(address => struct EthPool.UserInfo)",
        "numberOfBytes": "32",
        "value": "t_struct(UserInfo)698_storage"
      },
      "t_mapping(t_bytes32,t_struct(RoleData)57_storage)": {
        "encoding": "mapping",
        "key": "t_bytes32",
        "label": "mapping(bytes32 => struct AccessControl.RoleData)",
        "numberOfBytes": "32",
        "value": "t_struct(RoleData)57_storage"
      },
      "t_struct(RoleData)57_storage": {
        "encoding": "inplace",
        "label": "struct AccessControl.RoleData",
        "members": [
          {
            "astId": 54,
            "contract": "contracts/EthPool.sol:EthPool",
            "label": "members",
            "offset": 0,
            "slot": "0",
            "type": "t_mapping(t_address,t_bool)"
          },
          {
            "astId": 56,
            "contract": "contracts/EthPool.sol:EthPool",
            "label": "adminRole",
            "offset": 0,
            "slot": "1",
            "type": "t_bytes32"
          }
        ],
        "numberOfBytes": "64"
      },
      "t_struct(UserInfo)698_storage": {
        "encoding": "inplace",
        "label": "struct EthPool.UserInfo",
        "members": [
          {
            "astId": 683,
            "contract": "contracts/EthPool.sol:EthPool",
            "label": "totalDeposit",
            "offset": 0,
            "slot": "0",
            "type": "t_uint256"
          },
          {
            "astId": 685,
            "contract": "contracts/EthPool.sol:EthPool",
            "label": "depositAfterLastReward",
            "offset": 0,
            "slot": "1",
            "type": "t_uint256"
          },
          {
            "astId": 687,
            "contract": "contracts/EthPool.sol:EthPool",
            "label": "depositBeforeLastWithdraw",
            "offset": 0,
            "slot": "2",
            "type": "t_uint256"
          },
          {
            "astId": 689,
            "contract": "contracts/EthPool.sol:EthPool",
            "label": "lastDepositBlock",
            "offset": 0,
            "slot": "3",
            "type": "t_uint256"
          },
          {
            "astId": 691,
            "contract": "contracts/EthPool.sol:EthPool",
            "label": "lastWithdrawBlock",
            "offset": 0,
            "slot": "4",
            "type": "t_uint256"
          },
          {
            "astId": 694,
            "contract": "contracts/EthPool.sol:EthPool",
            "label": "rewardOnLastWithdraw",
            "offset": 0,
            "slot": "5",
            "type": "t_uint256"
          },
          {
            "astId": 697,
            "contract": "contracts/EthPool.sol:EthPool",
            "label": "totalDepositBeforeLastWithdraw",
            "offset": 0,
            "slot": "6",
            "type": "t_uint256"
          }
        ],
        "numberOfBytes": "224"
      },
      "t_uint256": {
        "encoding": "inplace",
        "label": "uint256",
        "numberOfBytes": "32"
      }
    }
  }
}